{
  "contractName": "LuckyBagDraw",
  "abi": [
    {
      "constant": true,
      "inputs": [
        {
          "name": "",
          "type": "address"
        },
        {
          "name": "",
          "type": "uint256"
        }
      ],
      "name": "untiedBagSeeds",
      "outputs": [
        {
          "name": "",
          "type": "uint256"
        }
      ],
      "payable": false,
      "stateMutability": "view",
      "type": "function"
    },
    {
      "constant": true,
      "inputs": [
        {
          "name": "",
          "type": "uint256"
        }
      ],
      "name": "seedBlockCount",
      "outputs": [
        {
          "name": "",
          "type": "uint256"
        }
      ],
      "payable": false,
      "stateMutability": "view",
      "type": "function"
    },
    {
      "constant": true,
      "inputs": [
        {
          "name": "",
          "type": "address"
        }
      ],
      "name": "openedBagCount",
      "outputs": [
        {
          "name": "",
          "type": "uint256"
        }
      ],
      "payable": false,
      "stateMutability": "view",
      "type": "function"
    },
    {
      "constant": true,
      "inputs": [
        {
          "name": "",
          "type": "address"
        }
      ],
      "name": "cumulativeUntiedBagCount",
      "outputs": [
        {
          "name": "",
          "type": "uint256"
        }
      ],
      "payable": false,
      "stateMutability": "view",
      "type": "function"
    },
    {
      "constant": true,
      "inputs": [
        {
          "name": "",
          "type": "address"
        }
      ],
      "name": "currentUntiedBagCount",
      "outputs": [
        {
          "name": "",
          "type": "uint256"
        }
      ],
      "payable": false,
      "stateMutability": "view",
      "type": "function"
    },
    {
      "constant": true,
      "inputs": [
        {
          "name": "",
          "type": "address"
        },
        {
          "name": "",
          "type": "uint256"
        }
      ],
      "name": "prizeRecord",
      "outputs": [
        {
          "name": "",
          "type": "string"
        }
      ],
      "payable": false,
      "stateMutability": "view",
      "type": "function"
    },
    {
      "inputs": [
        {
          "name": "_luckyBagTokenAddress",
          "type": "address"
        },
        {
          "name": "_rngAddress",
          "type": "address"
        }
      ],
      "payable": false,
      "stateMutability": "nonpayable",
      "type": "constructor"
    },
    {
      "payable": true,
      "stateMutability": "payable",
      "type": "fallback"
    },
    {
      "anonymous": false,
      "inputs": [
        {
          "indexed": false,
          "name": "seed",
          "type": "uint256"
        },
        {
          "indexed": false,
          "name": "sender",
          "type": "address"
        },
        {
          "indexed": false,
          "name": "untiedBags",
          "type": "uint256"
        },
        {
          "indexed": false,
          "name": "blockNum",
          "type": "uint256"
        }
      ],
      "name": "bagUntied",
      "type": "event"
    },
    {
      "anonymous": false,
      "inputs": [
        {
          "indexed": false,
          "name": "oldSeed",
          "type": "uint256"
        },
        {
          "indexed": false,
          "name": "newSeed",
          "type": "uint256"
        },
        {
          "indexed": false,
          "name": "sender",
          "type": "address"
        },
        {
          "indexed": false,
          "name": "bagIteration",
          "type": "uint256"
        },
        {
          "indexed": false,
          "name": "blockNum",
          "type": "uint256"
        }
      ],
      "name": "seedBlockConflict",
      "type": "event"
    },
    {
      "anonymous": false,
      "inputs": [
        {
          "indexed": false,
          "name": "seed",
          "type": "uint256"
        },
        {
          "indexed": false,
          "name": "ethSent",
          "type": "uint256"
        },
        {
          "indexed": false,
          "name": "itemSent",
          "type": "string"
        },
        {
          "indexed": false,
          "name": "openedBags",
          "type": "uint256"
        },
        {
          "indexed": false,
          "name": "recipient",
          "type": "address"
        },
        {
          "indexed": false,
          "name": "blockNum",
          "type": "uint256"
        }
      ],
      "name": "bagOpened",
      "type": "event"
    },
    {
      "constant": false,
      "inputs": [],
      "name": "primeRNG",
      "outputs": [],
      "payable": false,
      "stateMutability": "nonpayable",
      "type": "function"
    },
    {
      "constant": false,
      "inputs": [],
      "name": "untieBag",
      "outputs": [],
      "payable": false,
      "stateMutability": "nonpayable",
      "type": "function"
    },
    {
      "constant": false,
      "inputs": [],
      "name": "openBag",
      "outputs": [],
      "payable": false,
      "stateMutability": "nonpayable",
      "type": "function"
    },
    {
      "constant": true,
      "inputs": [
        {
          "name": "_prizeOwner",
          "type": "address"
        }
      ],
      "name": "getPrizeRecordLength",
      "outputs": [
        {
          "name": "",
          "type": "uint256"
        }
      ],
      "payable": false,
      "stateMutability": "view",
      "type": "function"
    },
    {
      "constant": false,
      "inputs": [],
      "name": "terminate",
      "outputs": [],
      "payable": false,
      "stateMutability": "nonpayable",
      "type": "function"
    }
  ],
  "bytecode": "0x608060405234801561001057600080fd5b50604051604080610e9c83398101604052805160209091015160008054600160a060020a0319908116331790915560078054600160a060020a0393841690831617905560088054929093169116179055610e2d8061006f6000396000f3006080604052600436106100955763ffffffff60e060020a6000350416630c08bf8881146100975780631a0dfd9c146100ac578063285de37c146100e25780632c0e5c42146100f7578063309c0b5c1461010f57806345a8269a14610130578063a3e0f54514610151578063addd4bce14610172578063b268f42714610187578063dc8277e9146101a8578063e7cb6c3014610241575b005b3480156100a357600080fd5b50610095610256565b3480156100b857600080fd5b506100d0600160a060020a036004351660243561026e565b60408051918252519081900360200190f35b3480156100ee57600080fd5b5061009561028b565b34801561010357600080fd5b506100d06004356104c5565b34801561011b57600080fd5b506100d0600160a060020a03600435166104d7565b34801561013c57600080fd5b506100d0600160a060020a03600435166104e9565b34801561015d57600080fd5b506100d0600160a060020a03600435166104fb565b34801561017e57600080fd5b50610095610516565b34801561019357600080fd5b506100d0600160a060020a0360043516610597565b3480156101b457600080fd5b506101cc600160a060020a03600435166024356105a9565b6040805160208082528351818301528351919283929083019185019080838360005b838110156102065781810151838201526020016101ee565b50505050905090810190601f1680156102335780820380516001836020036101000a031916815260200191505b509250505060405180910390f35b34801561024d57600080fd5b5061009561065f565b600054600160a060020a031633141561026c5733ff5b565b600160209081526000928352604080842090915290825290205481565b600854604080517f23b872dd0000000000000000000000000000000000000000000000000000000081523360048201523060248201526001604482015290516000928392600160a060020a03909116916323b872dd9160648082019260209290919082900301818787803b15801561030257600080fd5b505af1158015610316573d6000803e3d6000fd5b505050506040513d602081101561032c57600080fd5b5050600754604080517f62fd29ae0000000000000000000000000000000000000000000000000000000081529051600160a060020a03909216916362fd29ae916004808201926020929091908290030181600087803b15801561038e57600080fd5b505af11580156103a2573d6000803e3d6000fd5b505050506040513d60208110156103b857600080fd5b50516000818152600260205260409020549092506103dd90600163ffffffff610d3616565b60008381526002602090815260408083209390935533808352600482528383205460018084528585208286528452858520889055918452600390925292909120549092506104309163ffffffff610d3616565b3360009081526003602090815260408083209390935560049052205461045d90600163ffffffff610d3616565b336000818152600460209081526040808320949094556003815290839020548351868152918201929092528083019190915243606082015290517f04c31db49beb0121835d89fc495abb0e7c0decc04e51def051c0ca00c64e4bea9181900360800190a15050565b60026020526000908152604090205481565b60056020526000908152604090205481565b60046020526000908152604090205481565b600160a060020a031660009081526006602052604090205490565b600760009054906101000a9004600160a060020a0316600160a060020a03166362fd29ae6040518163ffffffff1660e060020a028152600401602060405180830381600087803b15801561056957600080fd5b505af115801561057d573d6000803e3d6000fd5b505050506040513d602081101561059357600080fd5b5050565b60036020526000908152604090205481565b6006602052816000526040600020818154811015156105c457fe5b600091825260209182902001805460408051601f600260001961010060018716150201909416939093049283018590048502810185019091528181529450909250908301828280156106575780601f1061062c57610100808354040283529160200191610657565b820191906000526020600020905b81548152906001019060200180831161063a57829003601f168201915b505050505081565b336000908152600360205260408120548190819081906060908290811061068557600080fd5b33600090815260056020908152604080832054600180845282852082865284528285205483518085018552600481527f6e6f6e650000000000000000000000000000000000000000000000000000000081870152818752600290955292852054919a5091985092955090935010156108515760008581526002602052604090205461071790600163ffffffff610d4f16565b60008681526002602090815260408083209390935560075483517f62fd29ae0000000000000000000000000000000000000000000000000000000081529351600160a060020a03909116936362fd29ae9360048083019493928390030190829087803b15801561078657600080fd5b505af115801561079a573d6000803e3d6000fd5b505050506040513d60208110156107b057600080fd5b50513360009081526001602081815260408084208b855282528084208590558484526002909152909120549192506107ee919063ffffffff610d3616565b600082815260026020908152604091829020929092558051878152918201839052338282015260608201889052436080830152517f9ce964e0c5dc7bdc8923ec242d33205e2bd6ee77e12f62998093f373cc9632609181900360a00190a1610d2e565b600760009054906101000a9004600160a060020a0316600160a060020a03166362fd29ae6040518163ffffffff1660e060020a028152600401602060405180830381600087803b1580156108a457600080fd5b505af11580156108b8573d6000803e3d6000fd5b505050506040513d60208110156108ce57600080fd5b5050600754604080517fa9c70eaa000000000000000000000000000000000000000000000000000000008152600481018890529051600160a060020a039092169163a9c70eaa916024808201926020929091908290030181600087803b15801561093757600080fd5b505af115801561094b573d6000803e3d6000fd5b505050506040513d602081101561096157600080fd5b5051151561096e57610d2e565b600754604080517fa9c70eaa000000000000000000000000000000000000000000000000000000008152600481018890529051600160a060020a039092169163a9c70eaa916024808201926020929091908290030181600087803b1580156109d557600080fd5b505af11580156109e9573d6000803e3d6000fd5b505050506040513d60208110156109ff57600080fd5b505193507f333303965f496be8f87dc8e6e23d174e5d453121c5af65ffffffffffffffffff841015610a9b576040513390600090670de0b6b3a76400009082818181858883f19350505050158015610a5b573d6000803e3d6000fd5b5060408051808201909152600581527f31204554480000000000000000000000000000000000000000000000000000006020820152600193509150610ba2565b7f66668b22cf5685fd5783b4f1d4a274f9dedacc8ccf5dfcffffffffffffffffff841015610afe5760408051808201909152600681527f4974656d2031000000000000000000000000000000000000000000000000000060208201529150610ba2565b7fcccd09579fb1d008db44d07e6383e952b03833fbec8649ffffffffffffffffff841015610b615760408051808201909152600681527f4974656d2032000000000000000000000000000000000000000000000000000060208201529150610ba2565b600019841015610ba25760408051808201909152600681527f4974656d20330000000000000000000000000000000000000000000000000000602082015291505b33600090815260056020526040902054610bc390600163ffffffff610d3616565b33600090815260056020908152604080832093909355600390522054610bf090600163ffffffff610d4f16565b33600090815260036020908152604080832093909355600681529181208054600181018083559183529183902085519193610c3393919091019190860190610d66565b50507fbbd7ed590f3c045d53247e389dfee0056461e385ddd0a898518ce9985b08299c8584846005600033600160a060020a0316600160a060020a03168152602001908152602001600020543343604051808781526020018681526020018060200185815260200184600160a060020a0316600160a060020a03168152602001838152602001828103825286818151815260200191508051906020019080838360005b83811015610cee578181015183820152602001610cd6565b50505050905090810190601f168015610d1b5780820380516001836020036101000a031916815260200191505b5097505050505050505060405180910390a15b505050505050565b600082820183811015610d4857600080fd5b9392505050565b60008083831115610d5f57600080fd5b5050900390565b828054600181600116156101000203166002900490600052602060002090601f016020900481019282601f10610da757805160ff1916838001178555610dd4565b82800160010185558215610dd4579182015b82811115610dd4578251825591602001919060010190610db9565b50610de0929150610de4565b5090565b610dfe91905b80821115610de05760008155600101610dea565b905600a165627a7a72305820ec7a9940fc9e67a09253496c6f7dcbbe88e347615341cd1fdfdb4722dc0baef90029",
  "source": "pragma solidity ^0.4.24;\n\nimport \"./RNGCore.sol\";\nimport \"./LuckyBagToken.sol\";\n\ncontract LuckyBagDraw {\n\n  using SafeMath for uint;\n\n  uint256 constant private ONE_HUNDRED_PCT = 115792089237316195423570985008687907853269984665640564039457584007913129639935;\n  uint256 constant private EIGHTY_PCT = 92634089237316195423570985008687907853269984665640564039457584007913129639935;\n  uint256 constant private SIXTY_PCT = 69475089237316195423570985008687907853269984665640564039457584007913129639935;\n  uint256 constant private FORTY_PCT = 46317089237316195423570985008687907853269984665640564039457584007913129639935;\n  uint256 constant private TWENTY_PCT = 23158089237316195423570985008687907853269984665640564039457584007913129639935;\n\n  address private owner;\n  // map of untied lucky bag owners' addresses to map of block seeds\n  // make private\n  mapping(address => mapping(uint256 => uint256)) public untiedBagSeeds;\n  // map of generated unused seed blocks to the number of times it has been generated\n  // (each seed block should only be generated and used once)\n  // make private\n  mapping(uint256 => uint256) public seedBlockCount;\n  // map of untied lucky bag owners' addresses to count of their currently untied bags\n  // make private\n  mapping(address => uint256) public currentUntiedBagCount;\n  // map of untied lucky bag owners' addresses to count of their cumulative untied bags\n  // make private\n  mapping(address => uint256) public cumulativeUntiedBagCount;\n  // map of untied lucky bag owners' addresses to count of their opened bags\n  // make private\n  mapping(address => uint256) public openedBagCount;\n  // map of opened lucky bag owners' addresses to array of claimed prizes\n  // make private\n  mapping(address => string[]) public prizeRecord;\n  RNGCore private _rng;\n  LuckyBagToken private _luckyBagToken;\n\n  event bagUntied(uint256 seed, address sender, uint256 untiedBags, uint256 blockNum);\n  event seedBlockConflict(uint256 oldSeed, uint256 newSeed, address sender, uint256 bagIteration, uint256 blockNum);\n  event bagOpened(uint256 seed, uint256 ethSent, string itemSent, uint256 openedBags, address recipient, uint256 blockNum);\n\n  modifier restricted() {\n    if (msg.sender == owner) _;\n  }\n\n  constructor(address _luckyBagTokenAddress, address _rngAddress) public {\n\n    owner = msg.sender;\n    _rng = RNGCore(_rngAddress);\n    _luckyBagToken = LuckyBagToken(_luckyBagTokenAddress);\n  }\n\n  // remove\n  function primeRNG() public {\n    _rng.nextSeed();\n  }\n\n  function untieBag() public {\n\n    uint256 futureBlock;\n    uint256 untiedBags;\n\n    _luckyBagToken.transferFrom(msg.sender, address(this), 1);\n\n    futureBlock = _rng.nextSeed();\n    seedBlockCount[futureBlock] = (seedBlockCount[futureBlock]).add(1);\n\n    untiedBags = cumulativeUntiedBagCount[msg.sender];\n    untiedBagSeeds[msg.sender][untiedBags] = futureBlock;\n    currentUntiedBagCount[msg.sender] = (currentUntiedBagCount[msg.sender]).add(1);\n    cumulativeUntiedBagCount[msg.sender] = (cumulativeUntiedBagCount[msg.sender]).add(1);\n\n    emit bagUntied(futureBlock, msg.sender, currentUntiedBagCount[msg.sender], block.number);\n  }\n\n  function openBag() public {\n\n    require(currentUntiedBagCount[msg.sender] > 0);\n\n    uint256 bagIteration = openedBagCount[msg.sender];\n    uint256 seedBlock = untiedBagSeeds[msg.sender][bagIteration];\n    uint256 draw;\n    uint256 ethSent = 0;\n    string memory itemSent = \"none\";\n\n    if (seedBlockCount[seedBlock] > 1) {\n\n      seedBlockCount[seedBlock] = (seedBlockCount[seedBlock]).sub(1);\n\n      uint256 futureBlock = _rng.nextSeed();\n      untiedBagSeeds[msg.sender][bagIteration] = futureBlock;\n      seedBlockCount[futureBlock] = (seedBlockCount[futureBlock]).add(1);\n\n      emit seedBlockConflict(seedBlock, futureBlock, msg.sender, bagIteration, block.number);\n      return;\n    }\n\n    _rng.nextSeed();\n\n    if (_rng.getUint(seedBlock) == 0) {\n      return;\n    } else {\n      draw = _rng.getUint(seedBlock);\n    }\n\n    if (draw < TWENTY_PCT) {\n\n      msg.sender.transfer(1 ether);\n      ethSent = 1;\n      itemSent = \"1 ETH\";\n\n    } else if (draw < FORTY_PCT) {\n\n      // item1.transfer(msg.sender, 1);\n      itemSent = \"Item 1\";\n\n    } else if (draw < EIGHTY_PCT) {\n\n      // item2.transfer(msg.sender, 1);\n      itemSent = \"Item 2\";\n\n    } else if (draw < ONE_HUNDRED_PCT) {\n\n      // item3.transfer(msg.sender, 1);\n      itemSent = \"Item 3\";\n    }\n\n    openedBagCount[msg.sender] = (openedBagCount[msg.sender]).add(1);\n    currentUntiedBagCount[msg.sender] = (currentUntiedBagCount[msg.sender]).sub(1);\n    prizeRecord[msg.sender].push(itemSent);\n\n    emit bagOpened(seedBlock, ethSent, itemSent, openedBagCount[msg.sender], msg.sender, block.number);\n  }\n\n  function getPrizeRecordLength(address _prizeOwner) public view returns (uint256) {\n    return prizeRecord[_prizeOwner].length;\n  }\n\n  function() public payable {}\n\n  // remove\n  function terminate() external restricted {\n    selfdestruct(msg.sender);\n  }\n}\n",
  "sourcePath": "/home/megaman/Documents/Ethereum/EtherCraft/LuckyBag/contracts/LuckyBagDraw.sol",
  "compiler": {
    "name": "solc",
    "version": "0.4.24+commit.e67f0147.Emscripten.clang"
  },
  "schemaVersion": "2.0.1",
  "updatedAt": "2019-01-26T02:59:11.433Z"
}