{
  "contractName": "LuckyBagToken",
  "abi": [
    {
      "anonymous": false,
      "inputs": [
        {
          "indexed": true,
          "name": "from",
          "type": "address"
        },
        {
          "indexed": true,
          "name": "to",
          "type": "address"
        },
        {
          "indexed": false,
          "name": "value",
          "type": "uint256"
        }
      ],
      "name": "Transfer",
      "type": "event"
    },
    {
      "anonymous": false,
      "inputs": [
        {
          "indexed": true,
          "name": "owner",
          "type": "address"
        },
        {
          "indexed": true,
          "name": "spender",
          "type": "address"
        },
        {
          "indexed": false,
          "name": "value",
          "type": "uint256"
        }
      ],
      "name": "Approval",
      "type": "event"
    },
    {
      "constant": true,
      "inputs": [],
      "name": "totalSupply",
      "outputs": [
        {
          "name": "",
          "type": "uint256"
        }
      ],
      "payable": false,
      "stateMutability": "view",
      "type": "function"
    },
    {
      "constant": true,
      "inputs": [
        {
          "name": "owner",
          "type": "address"
        }
      ],
      "name": "balanceOf",
      "outputs": [
        {
          "name": "",
          "type": "uint256"
        }
      ],
      "payable": false,
      "stateMutability": "view",
      "type": "function"
    },
    {
      "constant": true,
      "inputs": [
        {
          "name": "owner",
          "type": "address"
        },
        {
          "name": "spender",
          "type": "address"
        }
      ],
      "name": "allowance",
      "outputs": [
        {
          "name": "",
          "type": "uint256"
        }
      ],
      "payable": false,
      "stateMutability": "view",
      "type": "function"
    },
    {
      "constant": false,
      "inputs": [
        {
          "name": "to",
          "type": "address"
        },
        {
          "name": "value",
          "type": "uint256"
        }
      ],
      "name": "transfer",
      "outputs": [
        {
          "name": "",
          "type": "bool"
        }
      ],
      "payable": false,
      "stateMutability": "nonpayable",
      "type": "function"
    },
    {
      "constant": false,
      "inputs": [
        {
          "name": "spender",
          "type": "address"
        },
        {
          "name": "value",
          "type": "uint256"
        }
      ],
      "name": "approve",
      "outputs": [
        {
          "name": "",
          "type": "bool"
        }
      ],
      "payable": false,
      "stateMutability": "nonpayable",
      "type": "function"
    },
    {
      "constant": false,
      "inputs": [
        {
          "name": "from",
          "type": "address"
        },
        {
          "name": "to",
          "type": "address"
        },
        {
          "name": "value",
          "type": "uint256"
        }
      ],
      "name": "transferFrom",
      "outputs": [
        {
          "name": "",
          "type": "bool"
        }
      ],
      "payable": false,
      "stateMutability": "nonpayable",
      "type": "function"
    },
    {
      "constant": false,
      "inputs": [
        {
          "name": "spender",
          "type": "address"
        },
        {
          "name": "addedValue",
          "type": "uint256"
        }
      ],
      "name": "increaseAllowance",
      "outputs": [
        {
          "name": "",
          "type": "bool"
        }
      ],
      "payable": false,
      "stateMutability": "nonpayable",
      "type": "function"
    },
    {
      "constant": false,
      "inputs": [
        {
          "name": "spender",
          "type": "address"
        },
        {
          "name": "subtractedValue",
          "type": "uint256"
        }
      ],
      "name": "decreaseAllowance",
      "outputs": [
        {
          "name": "",
          "type": "bool"
        }
      ],
      "payable": false,
      "stateMutability": "nonpayable",
      "type": "function"
    },
    {
      "constant": false,
      "inputs": [
        {
          "name": "account",
          "type": "address"
        },
        {
          "name": "amount",
          "type": "uint256"
        }
      ],
      "name": "mint",
      "outputs": [],
      "payable": false,
      "stateMutability": "nonpayable",
      "type": "function"
    }
  ],
  "bytecode": "0x608060405234801561001057600080fd5b5061072d806100206000396000f3006080604052600436106100985763ffffffff7c0100000000000000000000000000000000000000000000000000000000600035041663095ea7b3811461009d57806318160ddd146100d557806323b872dd146100fc578063395093511461012657806340c10f191461014a57806370a0823114610170578063a457c2d714610191578063a9059cbb146101b5578063dd62ed3e146101d9575b600080fd5b3480156100a957600080fd5b506100c1600160a060020a0360043516602435610200565b604080519115158252519081900360200190f35b3480156100e157600080fd5b506100ea61027e565b60408051918252519081900360200190f35b34801561010857600080fd5b506100c1600160a060020a0360043581169060243516604435610284565b34801561013257600080fd5b506100c1600160a060020a03600435166024356103f9565b34801561015657600080fd5b5061016e600160a060020a03600435166024356104a9565b005b34801561017c57600080fd5b506100ea600160a060020a03600435166104b7565b34801561019d57600080fd5b506100c1600160a060020a03600435166024356104d2565b3480156101c157600080fd5b506100c1600160a060020a036004351660243561051d565b3480156101e557600080fd5b506100ea600160a060020a03600435811690602435166105fc565b6000600160a060020a038316151561021757600080fd5b336000818152600160209081526040808320600160a060020a03881680855290835292819020869055805186815290519293927f8c5be1e5ebec7d5bd14f71427d1e84f3dd0314c0f7b2291e5b200ac8c7c3b925929181900390910190a350600192915050565b60025490565b600160a060020a0383166000908152602081905260408120548211156102a957600080fd5b600160a060020a03841660009081526001602090815260408083203384529091529020548211156102d957600080fd5b600160a060020a03831615156102ee57600080fd5b600160a060020a038416600090815260208190526040902054610317908363ffffffff61062716565b600160a060020a03808616600090815260208190526040808220939093559085168152205461034c908363ffffffff61063e16565b600160a060020a0380851660009081526020818152604080832094909455918716815260018252828120338252909152205461038e908363ffffffff61062716565b600160a060020a03808616600081815260016020908152604080832033845282529182902094909455805186815290519287169391927fddf252ad1be2c89b69c2b068fc378daa952ba7f163c4a11628f55a4df523b3ef929181900390910190a35060019392505050565b6000600160a060020a038316151561041057600080fd5b336000908152600160209081526040808320600160a060020a0387168452909152902054610444908363ffffffff61063e16565b336000818152600160209081526040808320600160a060020a0389168085529083529281902085905580519485525191937f8c5be1e5ebec7d5bd14f71427d1e84f3dd0314c0f7b2291e5b200ac8c7c3b925929081900390910190a350600192915050565b6104b38282610657565b5050565b600160a060020a031660009081526020819052604090205490565b6000600160a060020a03831615156104e957600080fd5b336000908152600160209081526040808320600160a060020a0387168452909152902054610444908363ffffffff61062716565b3360009081526020819052604081205482111561053957600080fd5b600160a060020a038316151561054e57600080fd5b3360009081526020819052604090205461056e908363ffffffff61062716565b3360009081526020819052604080822092909255600160a060020a038516815220546105a0908363ffffffff61063e16565b600160a060020a038416600081815260208181526040918290209390935580518581529051919233927fddf252ad1be2c89b69c2b068fc378daa952ba7f163c4a11628f55a4df523b3ef9281900390910190a350600192915050565b600160a060020a03918216600090815260016020908152604080832093909416825291909152205490565b6000808383111561063757600080fd5b5050900390565b60008282018381101561065057600080fd5b9392505050565b600160a060020a038216151561066c57600080fd5b60025461067f908263ffffffff61063e16565b600255600160a060020a0382166000908152602081905260409020546106ab908263ffffffff61063e16565b600160a060020a0383166000818152602081815260408083209490945583518581529351929391927fddf252ad1be2c89b69c2b068fc378daa952ba7f163c4a11628f55a4df523b3ef9281900390910190a350505600a165627a7a72305820f4cf0c3114502a934a411e2a78cfa21ff8931b02d7f39b60856b7d3751ed39040029",
  "source": "pragma solidity ^0.4.24;\n\nimport \"./IERC20.sol\";\nimport \"./SafeMath.sol\";\n\n/**\n * @title LuckyBag token\n *\n * @dev Implementation of the basic standard token.\n * https://github.com/ethereum/EIPs/blob/master/EIPS/eip-20.md\n * Originally based on code by FirstBlood: https://github.com/Firstbloodio/token/blob/master/smart_contract/FirstBloodToken.sol\n */\ncontract LuckyBagToken is IERC20 {\n  using SafeMath for uint256;\n\n  mapping (address => uint256) private _balances;\n\n  mapping (address => mapping (address => uint256)) private _allowed;\n\n  uint256 private _totalSupply;\n\n  /**\n  * @dev Total number of tokens in existence\n  */\n  function totalSupply() public view returns (uint256) {\n    return _totalSupply;\n  }\n\n  /**\n  * @dev Gets the balance of the specified address.\n  * @param owner The address to query the the balance of.\n  * @return An uint256 representing the amount owned by the passed address.\n  */\n  function balanceOf(address owner) public view returns (uint256) {\n    return _balances[owner];\n  }\n\n  /**\n   * @dev Function to check the amount of tokens that an owner allowed to a spender.\n   * @param owner address The address which owns the funds.\n   * @param spender address The address which will spend the funds.\n   * @return A uint256 specifying the amount of tokens still available for the spender.\n   */\n  function allowance(\n    address owner,\n    address spender\n   )\n    public\n    view\n    returns (uint256)\n  {\n    return _allowed[owner][spender];\n  }\n\n  /**\n  * @dev Transfer token for a specified address\n  * @param to The address to transfer to.\n  * @param value The amount to be transferred.\n  */\n  function transfer(address to, uint256 value) public returns (bool) {\n    require(value <= _balances[msg.sender]);\n    require(to != address(0));\n\n    _balances[msg.sender] = _balances[msg.sender].sub(value);\n    _balances[to] = _balances[to].add(value);\n    emit Transfer(msg.sender, to, value);\n    return true;\n  }\n\n  /**\n   * @dev Approve the passed address to spend the specified amount of tokens on behalf of msg.sender.\n   * Beware that changing an allowance with this method brings the risk that someone may use both the old\n   * and the new allowance by unfortunate transaction ordering. One possible solution to mitigate this\n   * race condition is to first reduce the spender's allowance to 0 and set the desired value afterwards:\n   * https://github.com/ethereum/EIPs/issues/20#issuecomment-263524729\n   * @param spender The address which will spend the funds.\n   * @param value The amount of tokens to be spent.\n   */\n  function approve(address spender, uint256 value) public returns (bool) {\n    require(spender != address(0));\n\n    _allowed[msg.sender][spender] = value;\n    emit Approval(msg.sender, spender, value);\n    return true;\n  }\n\n  /**\n   * @dev Transfer tokens from one address to another\n   * @param from address The address which you want to send tokens from\n   * @param to address The address which you want to transfer to\n   * @param value uint256 the amount of tokens to be transferred\n   */\n  function transferFrom(\n    address from,\n    address to,\n    uint256 value\n  )\n    public\n    returns (bool)\n  {\n    require(value <= _balances[from]);\n    require(value <= _allowed[from][msg.sender]);\n    require(to != address(0));\n\n    _balances[from] = _balances[from].sub(value);\n    _balances[to] = _balances[to].add(value);\n    _allowed[from][msg.sender] = _allowed[from][msg.sender].sub(value);\n    emit Transfer(from, to, value);\n    return true;\n  }\n\n  /**\n   * @dev Increase the amount of tokens that an owner allowed to a spender.\n   * approve should be called when allowed_[_spender] == 0. To increment\n   * allowed value is better to use this function to avoid 2 calls (and wait until\n   * the first transaction is mined)\n   * From MonolithDAO Token.sol\n   * @param spender The address which will spend the funds.\n   * @param addedValue The amount of tokens to increase the allowance by.\n   */\n  function increaseAllowance(\n    address spender,\n    uint256 addedValue\n  )\n    public\n    returns (bool)\n  {\n    require(spender != address(0));\n\n    _allowed[msg.sender][spender] = (\n      _allowed[msg.sender][spender].add(addedValue));\n    emit Approval(msg.sender, spender, _allowed[msg.sender][spender]);\n    return true;\n  }\n\n  /**\n   * @dev Decrease the amount of tokens that an owner allowed to a spender.\n   * approve should be called when allowed_[_spender] == 0. To decrement\n   * allowed value is better to use this function to avoid 2 calls (and wait until\n   * the first transaction is mined)\n   * From MonolithDAO Token.sol\n   * @param spender The address which will spend the funds.\n   * @param subtractedValue The amount of tokens to decrease the allowance by.\n   */\n  function decreaseAllowance(\n    address spender,\n    uint256 subtractedValue\n  )\n    public\n    returns (bool)\n  {\n    require(spender != address(0));\n\n    _allowed[msg.sender][spender] = (\n      _allowed[msg.sender][spender].sub(subtractedValue));\n    emit Approval(msg.sender, spender, _allowed[msg.sender][spender]);\n    return true;\n  }\n\n  /**\n   * @dev Internal function that mints an amount of the token and assigns it to\n   * an account. This encapsulates the modification of balances such that the\n   * proper events are emitted.\n   * @param account The account that will receive the created tokens.\n   * @param amount The amount that will be created.\n   */\n  function _mint(address account, uint256 amount) internal {\n    require(account != 0);\n    _totalSupply = _totalSupply.add(amount);\n    _balances[account] = _balances[account].add(amount);\n    emit Transfer(address(0), account, amount);\n  }\n\n  /**\n   * @dev Internal function that burns an amount of the token of a given\n   * account.\n   * @param account The account whose tokens will be burnt.\n   * @param amount The amount that will be burnt.\n   */\n  function _burn(address account, uint256 amount) internal {\n    require(account != 0);\n    require(amount <= _balances[account]);\n\n    _totalSupply = _totalSupply.sub(amount);\n    _balances[account] = _balances[account].sub(amount);\n    emit Transfer(account, address(0), amount);\n  }\n\n  /**\n   * @dev Internal function that burns an amount of the token of a given\n   * account, deducting from the sender's allowance for said account. Uses the\n   * internal burn function.\n   * @param account The account whose tokens will be burnt.\n   * @param amount The amount that will be burnt.\n   */\n  function _burnFrom(address account, uint256 amount) internal {\n    require(amount <= _allowed[account][msg.sender]);\n\n    // Should https://github.com/OpenZeppelin/zeppelin-solidity/issues/707 be accepted,\n    // this function needs to emit an event with the updated approval.\n    _allowed[account][msg.sender] = _allowed[account][msg.sender].sub(\n      amount);\n    _burn(account, amount);\n  }\n\n  function mint(address account, uint256 amount) public {\n    _mint(account, amount);\n  }\n}\n",
  "sourcePath": "/home/megaman/Documents/Ethereum/EtherCraft/LuckyBag/contracts/LuckyBagToken.sol",
  "compiler": {
    "name": "solc",
    "version": "0.4.24+commit.e67f0147.Emscripten.clang"
  },
  "schemaVersion": "2.0.1",
  "updatedAt": "2019-01-22T22:18:13.730Z"
}